{
  "contractName": "TheAlienBoy",
  "abi": [
    {
      "inputs": [
        {
          "internalType": "string",
          "name": "name",
          "type": "string"
        },
        {
          "internalType": "string",
          "name": "symbol",
          "type": "string"
        },
        {
          "internalType": "string",
          "name": "baseURIp",
          "type": "string"
        },
        {
          "internalType": "uint256",
          "name": "startingIndex",
          "type": "uint256"
        }
      ],
      "stateMutability": "nonpayable",
      "type": "constructor"
    },
    {
      "anonymous": false,
      "inputs": [
        {
          "indexed": true,
          "internalType": "address",
          "name": "owner",
          "type": "address"
        },
        {
          "indexed": true,
          "internalType": "address",
          "name": "approved",
          "type": "address"
        },
        {
          "indexed": true,
          "internalType": "uint256",
          "name": "tokenId",
          "type": "uint256"
        }
      ],
      "name": "Approval",
      "type": "event"
    },
    {
      "anonymous": false,
      "inputs": [
        {
          "indexed": true,
          "internalType": "address",
          "name": "owner",
          "type": "address"
        },
        {
          "indexed": true,
          "internalType": "address",
          "name": "operator",
          "type": "address"
        },
        {
          "indexed": false,
          "internalType": "bool",
          "name": "approved",
          "type": "bool"
        }
      ],
      "name": "ApprovalForAll",
      "type": "event"
    },
    {
      "anonymous": false,
      "inputs": [
        {
          "indexed": true,
          "internalType": "address",
          "name": "previousOwner",
          "type": "address"
        },
        {
          "indexed": true,
          "internalType": "address",
          "name": "newOwner",
          "type": "address"
        }
      ],
      "name": "OwnershipTransferred",
      "type": "event"
    },
    {
      "anonymous": false,
      "inputs": [
        {
          "indexed": false,
          "internalType": "uint256",
          "name": "tokenId",
          "type": "uint256"
        },
        {
          "indexed": false,
          "internalType": "address",
          "name": "owner",
          "type": "address"
        },
        {
          "indexed": false,
          "internalType": "uint256",
          "name": "first_encounter",
          "type": "uint256"
        }
      ],
      "name": "TokenMinted",
      "type": "event"
    },
    {
      "anonymous": false,
      "inputs": [
        {
          "indexed": true,
          "internalType": "address",
          "name": "from",
          "type": "address"
        },
        {
          "indexed": true,
          "internalType": "address",
          "name": "to",
          "type": "address"
        },
        {
          "indexed": true,
          "internalType": "uint256",
          "name": "tokenId",
          "type": "uint256"
        }
      ],
      "name": "Transfer",
      "type": "event"
    },
    {
      "inputs": [],
      "name": "CURRENT_PRICE",
      "outputs": [
        {
          "internalType": "uint256",
          "name": "",
          "type": "uint256"
        }
      ],
      "stateMutability": "view",
      "type": "function",
      "constant": true
    },
    {
      "inputs": [],
      "name": "MAX_PURCHASE",
      "outputs": [
        {
          "internalType": "uint256",
          "name": "",
          "type": "uint256"
        }
      ],
      "stateMutability": "view",
      "type": "function",
      "constant": true
    },
    {
      "inputs": [],
      "name": "MAX_TOKENS",
      "outputs": [
        {
          "internalType": "uint256",
          "name": "",
          "type": "uint256"
        }
      ],
      "stateMutability": "view",
      "type": "function",
      "constant": true
    },
    {
      "inputs": [],
      "name": "PROVENANCE",
      "outputs": [
        {
          "internalType": "string",
          "name": "",
          "type": "string"
        }
      ],
      "stateMutability": "view",
      "type": "function",
      "constant": true
    },
    {
      "inputs": [],
      "name": "STARTING_INDEX",
      "outputs": [
        {
          "internalType": "uint256",
          "name": "",
          "type": "uint256"
        }
      ],
      "stateMutability": "view",
      "type": "function",
      "constant": true
    },
    {
      "inputs": [
        {
          "internalType": "address",
          "name": "to",
          "type": "address"
        },
        {
          "internalType": "uint256",
          "name": "tokenId",
          "type": "uint256"
        }
      ],
      "name": "approve",
      "outputs": [],
      "stateMutability": "nonpayable",
      "type": "function"
    },
    {
      "inputs": [
        {
          "internalType": "address",
          "name": "owner",
          "type": "address"
        }
      ],
      "name": "balanceOf",
      "outputs": [
        {
          "internalType": "uint256",
          "name": "",
          "type": "uint256"
        }
      ],
      "stateMutability": "view",
      "type": "function",
      "constant": true
    },
    {
      "inputs": [
        {
          "internalType": "uint256",
          "name": "tokenId",
          "type": "uint256"
        }
      ],
      "name": "getApproved",
      "outputs": [
        {
          "internalType": "address",
          "name": "",
          "type": "address"
        }
      ],
      "stateMutability": "view",
      "type": "function",
      "constant": true
    },
    {
      "inputs": [
        {
          "internalType": "address",
          "name": "owner",
          "type": "address"
        },
        {
          "internalType": "address",
          "name": "operator",
          "type": "address"
        }
      ],
      "name": "isApprovedForAll",
      "outputs": [
        {
          "internalType": "bool",
          "name": "",
          "type": "bool"
        }
      ],
      "stateMutability": "view",
      "type": "function",
      "constant": true
    },
    {
      "inputs": [],
      "name": "name",
      "outputs": [
        {
          "internalType": "string",
          "name": "",
          "type": "string"
        }
      ],
      "stateMutability": "view",
      "type": "function",
      "constant": true
    },
    {
      "inputs": [],
      "name": "owner",
      "outputs": [
        {
          "internalType": "address",
          "name": "",
          "type": "address"
        }
      ],
      "stateMutability": "view",
      "type": "function",
      "constant": true
    },
    {
      "inputs": [
        {
          "internalType": "uint256",
          "name": "tokenId",
          "type": "uint256"
        }
      ],
      "name": "ownerOf",
      "outputs": [
        {
          "internalType": "address",
          "name": "",
          "type": "address"
        }
      ],
      "stateMutability": "view",
      "type": "function",
      "constant": true
    },
    {
      "inputs": [],
      "name": "renounceOwnership",
      "outputs": [],
      "stateMutability": "nonpayable",
      "type": "function"
    },
    {
      "inputs": [
        {
          "internalType": "address",
          "name": "from",
          "type": "address"
        },
        {
          "internalType": "address",
          "name": "to",
          "type": "address"
        },
        {
          "internalType": "uint256",
          "name": "tokenId",
          "type": "uint256"
        }
      ],
      "name": "safeTransferFrom",
      "outputs": [],
      "stateMutability": "nonpayable",
      "type": "function"
    },
    {
      "inputs": [
        {
          "internalType": "address",
          "name": "from",
          "type": "address"
        },
        {
          "internalType": "address",
          "name": "to",
          "type": "address"
        },
        {
          "internalType": "uint256",
          "name": "tokenId",
          "type": "uint256"
        },
        {
          "internalType": "bytes",
          "name": "_data",
          "type": "bytes"
        }
      ],
      "name": "safeTransferFrom",
      "outputs": [],
      "stateMutability": "nonpayable",
      "type": "function"
    },
    {
      "inputs": [],
      "name": "saleIsActive",
      "outputs": [
        {
          "internalType": "bool",
          "name": "",
          "type": "bool"
        }
      ],
      "stateMutability": "view",
      "type": "function",
      "constant": true
    },
    {
      "inputs": [
        {
          "internalType": "address",
          "name": "operator",
          "type": "address"
        },
        {
          "internalType": "bool",
          "name": "approved",
          "type": "bool"
        }
      ],
      "name": "setApprovalForAll",
      "outputs": [],
      "stateMutability": "nonpayable",
      "type": "function"
    },
    {
      "inputs": [
        {
          "internalType": "bytes4",
          "name": "interfaceId",
          "type": "bytes4"
        }
      ],
      "name": "supportsInterface",
      "outputs": [
        {
          "internalType": "bool",
          "name": "",
          "type": "bool"
        }
      ],
      "stateMutability": "view",
      "type": "function",
      "constant": true
    },
    {
      "inputs": [],
      "name": "symbol",
      "outputs": [
        {
          "internalType": "string",
          "name": "",
          "type": "string"
        }
      ],
      "stateMutability": "view",
      "type": "function",
      "constant": true
    },
    {
      "inputs": [
        {
          "internalType": "uint256",
          "name": "index",
          "type": "uint256"
        }
      ],
      "name": "tokenByIndex",
      "outputs": [
        {
          "internalType": "uint256",
          "name": "",
          "type": "uint256"
        }
      ],
      "stateMutability": "view",
      "type": "function",
      "constant": true
    },
    {
      "inputs": [
        {
          "internalType": "address",
          "name": "owner",
          "type": "address"
        },
        {
          "internalType": "uint256",
          "name": "index",
          "type": "uint256"
        }
      ],
      "name": "tokenOfOwnerByIndex",
      "outputs": [
        {
          "internalType": "uint256",
          "name": "",
          "type": "uint256"
        }
      ],
      "stateMutability": "view",
      "type": "function",
      "constant": true
    },
    {
      "inputs": [
        {
          "internalType": "uint256",
          "name": "tokenId",
          "type": "uint256"
        }
      ],
      "name": "tokenURI",
      "outputs": [
        {
          "internalType": "string",
          "name": "",
          "type": "string"
        }
      ],
      "stateMutability": "view",
      "type": "function",
      "constant": true
    },
    {
      "inputs": [],
      "name": "totalSupply",
      "outputs": [
        {
          "internalType": "uint256",
          "name": "",
          "type": "uint256"
        }
      ],
      "stateMutability": "view",
      "type": "function",
      "constant": true
    },
    {
      "inputs": [
        {
          "internalType": "address",
          "name": "from",
          "type": "address"
        },
        {
          "internalType": "address",
          "name": "to",
          "type": "address"
        },
        {
          "internalType": "uint256",
          "name": "tokenId",
          "type": "uint256"
        }
      ],
      "name": "transferFrom",
      "outputs": [],
      "stateMutability": "nonpayable",
      "type": "function"
    },
    {
      "inputs": [
        {
          "internalType": "address",
          "name": "newOwner",
          "type": "address"
        }
      ],
      "name": "transferOwnership",
      "outputs": [],
      "stateMutability": "nonpayable",
      "type": "function"
    },
    {
      "inputs": [],
      "name": "withdraw",
      "outputs": [],
      "stateMutability": "nonpayable",
      "type": "function"
    },
    {
      "inputs": [],
      "name": "reserveTokens",
      "outputs": [],
      "stateMutability": "nonpayable",
      "type": "function"
    },
    {
      "inputs": [
        {
          "internalType": "uint256",
          "name": "tokenId",
          "type": "uint256"
        }
      ],
      "name": "mintTokenId",
      "outputs": [],
      "stateMutability": "nonpayable",
      "type": "function"
    },
    {
      "inputs": [
        {
          "internalType": "string",
          "name": "provenanceHash",
          "type": "string"
        }
      ],
      "name": "setProvenanceHash",
      "outputs": [],
      "stateMutability": "nonpayable",
      "type": "function"
    },
    {
      "inputs": [
        {
          "internalType": "uint256",
          "name": "maxTokens",
          "type": "uint256"
        }
      ],
      "name": "setMaxTokens",
      "outputs": [],
      "stateMutability": "nonpayable",
      "type": "function"
    },
    {
      "inputs": [
        {
          "internalType": "bool",
          "name": "newState",
          "type": "bool"
        }
      ],
      "name": "setSaleState",
      "outputs": [],
      "stateMutability": "nonpayable",
      "type": "function"
    },
    {
      "inputs": [
        {
          "internalType": "uint256",
          "name": "numberOfTokens",
          "type": "uint256"
        }
      ],
      "name": "mintAlien",
      "outputs": [],
      "stateMutability": "payable",
      "type": "function",
      "payable": true
    },
    {
      "inputs": [
        {
          "internalType": "uint256",
          "name": "startingIndex",
          "type": "uint256"
        }
      ],
      "name": "setStartingIndex",
      "outputs": [],
      "stateMutability": "nonpayable",
      "type": "function"
    },
    {
      "inputs": [
        {
          "internalType": "string",
          "name": "BaseURI",
          "type": "string"
        }
      ],
      "name": "setBaseURI",
      "outputs": [],
      "stateMutability": "nonpayable",
      "type": "function"
    },
    {
      "inputs": [
        {
          "internalType": "uint256",
          "name": "currentPrice",
          "type": "uint256"
        }
      ],
      "name": "setCurrentPrice",
      "outputs": [],
      "stateMutability": "nonpayable",
      "type": "function"
    },
    {
      "inputs": [
        {
          "internalType": "uint256",
          "name": "tokenId",
          "type": "uint256"
        }
      ],
      "name": "getAlienDetail",
      "outputs": [
        {
          "components": [
            {
              "internalType": "uint256",
              "name": "first_encounter",
              "type": "uint256"
            }
          ],
          "internalType": "struct TheAlienBoy.AlienDetail",
          "name": "detail",
          "type": "tuple"
        }
      ],
      "stateMutability": "view",
      "type": "function",
      "constant": true
    }
  ],
  "bytecode": "0x608060405260405180602001604052806000815250600c90805190602001906200002b92919062000277565b506032600e55612710600f5567011c37937e0800006010556001601160006101000a81548160ff0219169083151502179055503480156200006b57600080fd5b5060405162004cdf38038062004cdf8339818101604052810190620000919190620003b0565b83838160009080519060200190620000ab92919062000277565b508060019080519060200190620000c492919062000277565b5050506000620000d96200019a60201b60201c565b905080600a60006101000a81548173ffffffffffffffffffffffffffffffffffffffff021916908373ffffffffffffffffffffffffffffffffffffffff1602179055508073ffffffffffffffffffffffffffffffffffffffff16600073ffffffffffffffffffffffffffffffffffffffff167f8be0079c531659141344cd1fd0a4f28419497f9722a3daafe3b4186f6b6457e060405160405180910390a3506200018982620001a260201b60201c565b80600d819055505050505062000631565b600033905090565b620001b26200019a60201b60201c565b73ffffffffffffffffffffffffffffffffffffffff16620001d86200024d60201b60201c565b73ffffffffffffffffffffffffffffffffffffffff161462000231576040517f08c379a00000000000000000000000000000000000000000000000000000000081526004016200022890620004a9565b60405180910390fd5b80601290805190602001906200024992919062000277565b5050565b6000600a60009054906101000a900473ffffffffffffffffffffffffffffffffffffffff16905090565b828054620002859062000583565b90600052602060002090601f016020900481019282620002a95760008555620002f5565b82601f10620002c457805160ff1916838001178555620002f5565b82800160010185558215620002f5579182015b82811115620002f4578251825591602001919060010190620002d7565b5b50905062000304919062000308565b5090565b5b808211156200032357600081600090555060010162000309565b5090565b60006200033e6200033884620004ff565b620004cb565b9050828152602081018484840111156200035757600080fd5b620003648482856200054d565b509392505050565b600082601f8301126200037e57600080fd5b81516200039084826020860162000327565b91505092915050565b600081519050620003aa8162000617565b92915050565b60008060008060808587031215620003c757600080fd5b600085015167ffffffffffffffff811115620003e257600080fd5b620003f0878288016200036c565b945050602085015167ffffffffffffffff8111156200040e57600080fd5b6200041c878288016200036c565b935050604085015167ffffffffffffffff8111156200043a57600080fd5b62000448878288016200036c565b92505060606200045b8782880162000399565b91505092959194509250565b60006200047660208362000532565b91507f4f776e61626c653a2063616c6c6572206973206e6f7420746865206f776e65726000830152602082019050919050565b60006020820190508181036000830152620004c48162000467565b9050919050565b6000604051905081810181811067ffffffffffffffff82111715620004f557620004f4620005e8565b5b8060405250919050565b600067ffffffffffffffff8211156200051d576200051c620005e8565b5b601f19601f8301169050602081019050919050565b600082825260208201905092915050565b6000819050919050565b60005b838110156200056d57808201518184015260208101905062000550565b838111156200057d576000848401525b50505050565b600060028204905060018216806200059c57607f821691505b60208210811415620005b357620005b2620005b9565b5b50919050565b7f4e487b7100000000000000000000000000000000000000000000000000000000600052602260045260246000fd5b7f4e487b7100000000000000000000000000000000000000000000000000000000600052604160045260246000fd5b620006228162000543565b81146200062e57600080fd5b50565b61469e80620006416000396000f3fe60806040526004361061020f5760003560e01c80636373a6b111610118578063b88d4fde116100a0578063e985e9c51161006f578063e985e9c514610776578063eb8d2444146107b3578063f2fde38b146107de578063f47c84c514610807578063f7de95e4146108325761020f565b8063b88d4fde146106cb578063c4e37095146106f4578063c87b56dd1461071d578063d40491831461075a5761020f565b8063715018a6116100e7578063715018a61461060c57806388f2ebcb146106235780638da5cb5b1461064c57806395d89b4114610677578063a22cb465146106a25761020f565b80636373a6b11461053c578063686f8fc11461056757806370a08231146105a45780637146bd08146105e15761020f565b80632429467b1161019b57806342842e0e1161016a57806342842e0e146104455780634b369a611461046e5780634f6ccce71461049957806355f804b3146104d65780636352211e146104ff5761020f565b80632429467b146103b157806327ac36c4146103da5780632f745c59146103f15780633ccfd60b1461042e5761020f565b806310969523116101e257806310969523146102e257806311e776fe1461030b57806318160ddd1461033457806318b200711461035f57806323b872dd146103885761020f565b806301ffc9a71461021457806306fdde0314610251578063081812fc1461027c578063095ea7b3146102b9575b600080fd5b34801561022057600080fd5b5061023b600480360381019061023691906133a8565b61085d565b6040516102489190613e4a565b60405180910390f35b34801561025d57600080fd5b506102666108d7565b6040516102739190613e65565b60405180910390f35b34801561028857600080fd5b506102a3600480360381019061029e919061343b565b610969565b6040516102b09190613de3565b60405180910390f35b3480156102c557600080fd5b506102e060048036038101906102db9190613343565b6109ee565b005b3480156102ee57600080fd5b50610309600480360381019061030491906133fa565b610b06565b005b34801561031757600080fd5b50610332600480360381019061032d919061343b565b610b9c565b005b34801561034057600080fd5b50610349610c22565b60405161035691906141a2565b60405180910390f35b34801561036b57600080fd5b506103866004803603810190610381919061343b565b610c2f565b005b34801561039457600080fd5b506103af60048036038101906103aa919061323d565b610cb5565b005b3480156103bd57600080fd5b506103d860048036038101906103d3919061343b565b610d15565b005b3480156103e657600080fd5b506103ef610e57565b005b3480156103fd57600080fd5b5061041860048036038101906104139190613343565b610f9b565b60405161042591906141a2565b60405180910390f35b34801561043a57600080fd5b50610443611040565b005b34801561045157600080fd5b5061046c6004803603810190610467919061323d565b61110b565b005b34801561047a57600080fd5b5061048361112b565b60405161049091906141a2565b60405180910390f35b3480156104a557600080fd5b506104c060048036038101906104bb919061343b565b611131565b6040516104cd91906141a2565b60405180910390f35b3480156104e257600080fd5b506104fd60048036038101906104f891906133fa565b6111c8565b005b34801561050b57600080fd5b506105266004803603810190610521919061343b565b61125e565b6040516105339190613de3565b60405180910390f35b34801561054857600080fd5b50610551611310565b60405161055e9190613e65565b60405180910390f35b34801561057357600080fd5b5061058e6004803603810190610589919061343b565b61139e565b60405161059b9190614187565b60405180910390f35b3480156105b057600080fd5b506105cb60048036038101906105c691906131d8565b61141d565b6040516105d891906141a2565b60405180910390f35b3480156105ed57600080fd5b506105f66114d5565b60405161060391906141a2565b60405180910390f35b34801561061857600080fd5b506106216114db565b005b34801561062f57600080fd5b5061064a6004803603810190610645919061343b565b611618565b005b34801561065857600080fd5b5061066161169e565b60405161066e9190613de3565b60405180910390f35b34801561068357600080fd5b5061068c6116c8565b6040516106999190613e65565b60405180910390f35b3480156106ae57600080fd5b506106c960048036038101906106c49190613307565b61175a565b005b3480156106d757600080fd5b506106f260048036038101906106ed919061328c565b6118db565b005b34801561070057600080fd5b5061071b6004803603810190610716919061337f565b61193d565b005b34801561072957600080fd5b50610744600480360381019061073f919061343b565b6119d6565b6040516107519190613e65565b60405180910390f35b610774600480360381019061076f919061343b565b611a7d565b005b34801561078257600080fd5b5061079d60048036038101906107989190613201565b611c8e565b6040516107aa9190613e4a565b60405180910390f35b3480156107bf57600080fd5b506107c8611d22565b6040516107d59190613e4a565b60405180910390f35b3480156107ea57600080fd5b50610805600480360381019061080091906131d8565b611d35565b005b34801561081357600080fd5b5061081c611ee1565b60405161082991906141a2565b60405180910390f35b34801561083e57600080fd5b50610847611ee7565b60405161085491906141a2565b60405180910390f35b60007f780e9d63000000000000000000000000000000000000000000000000000000007bffffffffffffffffffffffffffffffffffffffffffffffffffffffff1916827bffffffffffffffffffffffffffffffffffffffffffffffffffffffff191614806108d057506108cf82611eed565b5b9050919050565b6060600080546108e690614493565b80601f016020809104026020016040519081016040528092919081815260200182805461091290614493565b801561095f5780601f106109345761010080835404028352916020019161095f565b820191906000526020600020905b81548152906001019060200180831161094257829003601f168201915b5050505050905090565b600061097482611fcf565b6109b3576040517f08c379a00000000000000000000000000000000000000000000000000000000081526004016109aa906140a7565b60405180910390fd5b6004600083815260200190815260200160002060009054906101000a900473ffffffffffffffffffffffffffffffffffffffff169050919050565b60006109f98261125e565b90508073ffffffffffffffffffffffffffffffffffffffff168373ffffffffffffffffffffffffffffffffffffffff161415610a6a576040517f08c379a0000000000000000000000000000000000000000000000000000000008152600401610a6190614127565b60405180910390fd5b8073ffffffffffffffffffffffffffffffffffffffff16610a8961203b565b73ffffffffffffffffffffffffffffffffffffffff161480610ab85750610ab781610ab261203b565b611c8e565b5b610af7576040517f08c379a0000000000000000000000000000000000000000000000000000000008152600401610aee90613fe7565b60405180910390fd5b610b018383612043565b505050565b610b0e61203b565b73ffffffffffffffffffffffffffffffffffffffff16610b2c61169e565b73ffffffffffffffffffffffffffffffffffffffff1614610b82576040517f08c379a0000000000000000000000000000000000000000000000000000000008152600401610b79906140c7565b60405180910390fd5b80600c9080519060200190610b98929190612fe9565b5050565b610ba461203b565b73ffffffffffffffffffffffffffffffffffffffff16610bc261169e565b73ffffffffffffffffffffffffffffffffffffffff1614610c18576040517f08c379a0000000000000000000000000000000000000000000000000000000008152600401610c0f906140c7565b60405180910390fd5b80600f8190555050565b6000600880549050905090565b610c3761203b565b73ffffffffffffffffffffffffffffffffffffffff16610c5561169e565b73ffffffffffffffffffffffffffffffffffffffff1614610cab576040517f08c379a0000000000000000000000000000000000000000000000000000000008152600401610ca2906140c7565b60405180910390fd5b8060108190555050565b610cc6610cc061203b565b826120fc565b610d05576040517f08c379a0000000000000000000000000000000000000000000000000000000008152600401610cfc90614147565b60405180910390fd5b610d108383836121da565b505050565b610d1d61203b565b73ffffffffffffffffffffffffffffffffffffffff16610d3b61169e565b73ffffffffffffffffffffffffffffffffffffffff1614610d91576040517f08c379a0000000000000000000000000000000000000000000000000000000008152600401610d88906140c7565b60405180910390fd5b610d9a81611fcf565b15610dda576040517f08c379a0000000000000000000000000000000000000000000000000000000008152600401610dd190613fa7565b60405180910390fd5b6000429050610de93383612436565b604051806020016040528082815250600b6000848152602001908152602001600020600082015181600001559050507f2d03118aa776f7008445f6ca8490a6782ede2db364d741513555ba656ab1879f823383604051610e4b939291906141bd565b60405180910390a15050565b610e5f61203b565b73ffffffffffffffffffffffffffffffffffffffff16610e7d61169e565b73ffffffffffffffffffffffffffffffffffffffff1614610ed3576040517f08c379a0000000000000000000000000000000000000000000000000000000008152600401610eca906140c7565b60405180910390fd5b6000806000429050600192505b60328311610f9657610f036001610ef5610c22565b61245490919063ffffffff16565b9150600f548211610f8357610f183383612436565b604051806020016040528082815250600b6000848152602001908152602001600020600082015181600001559050507f2d03118aa776f7008445f6ca8490a6782ede2db364d741513555ba656ab1879f823383604051610f7a939291906141bd565b60405180910390a15b8280610f8e906144c5565b935050610ee0565b505050565b6000610fa68361141d565b8210610fe7576040517f08c379a0000000000000000000000000000000000000000000000000000000008152600401610fde90613ea7565b60405180910390fd5b600660008473ffffffffffffffffffffffffffffffffffffffff1673ffffffffffffffffffffffffffffffffffffffff168152602001908152602001600020600083815260200190815260200160002054905092915050565b61104861203b565b73ffffffffffffffffffffffffffffffffffffffff1661106661169e565b73ffffffffffffffffffffffffffffffffffffffff16146110bc576040517f08c379a00000000000000000000000000000000000000000000000000000000081526004016110b3906140c7565b60405180910390fd5b60004790503373ffffffffffffffffffffffffffffffffffffffff166108fc829081150290604051600060405180830381858888f19350505050158015611107573d6000803e3d6000fd5b5050565b611126838383604051806020016040528060008152506118db565b505050565b60105481565b600061113b610c22565b821061117c576040517f08c379a000000000000000000000000000000000000000000000000000000000815260040161117390614167565b60405180910390fd5b600882815481106111b6577f4e487b7100000000000000000000000000000000000000000000000000000000600052603260045260246000fd5b90600052602060002001549050919050565b6111d061203b565b73ffffffffffffffffffffffffffffffffffffffff166111ee61169e565b73ffffffffffffffffffffffffffffffffffffffff1614611244576040517f08c379a000000000000000000000000000000000000000000000000000000000815260040161123b906140c7565b60405180910390fd5b806012908051906020019061125a929190612fe9565b5050565b6000806002600084815260200190815260200160002060009054906101000a900473ffffffffffffffffffffffffffffffffffffffff169050600073ffffffffffffffffffffffffffffffffffffffff168173ffffffffffffffffffffffffffffffffffffffff161415611307576040517f08c379a00000000000000000000000000000000000000000000000000000000081526004016112fe90614047565b60405180910390fd5b80915050919050565b600c805461131d90614493565b80601f016020809104026020016040519081016040528092919081815260200182805461134990614493565b80156113965780601f1061136b57610100808354040283529160200191611396565b820191906000526020600020905b81548152906001019060200180831161137957829003601f168201915b505050505081565b6113a661306f565b6113af82611fcf565b6113ee576040517f08c379a00000000000000000000000000000000000000000000000000000000081526004016113e590613fc7565b60405180910390fd5b600b60008381526020019081526020016000206040518060200160405290816000820154815250509050919050565b60008073ffffffffffffffffffffffffffffffffffffffff168273ffffffffffffffffffffffffffffffffffffffff16141561148e576040517f08c379a000000000000000000000000000000000000000000000000000000000815260040161148590614027565b60405180910390fd5b600360008373ffffffffffffffffffffffffffffffffffffffff1673ffffffffffffffffffffffffffffffffffffffff168152602001908152602001600020549050919050565b600e5481565b6114e361203b565b73ffffffffffffffffffffffffffffffffffffffff1661150161169e565b73ffffffffffffffffffffffffffffffffffffffff1614611557576040517f08c379a000000000000000000000000000000000000000000000000000000000815260040161154e906140c7565b60405180910390fd5b600073ffffffffffffffffffffffffffffffffffffffff16600a60009054906101000a900473ffffffffffffffffffffffffffffffffffffffff1673ffffffffffffffffffffffffffffffffffffffff167f8be0079c531659141344cd1fd0a4f28419497f9722a3daafe3b4186f6b6457e060405160405180910390a36000600a60006101000a81548173ffffffffffffffffffffffffffffffffffffffff021916908373ffffffffffffffffffffffffffffffffffffffff160217905550565b61162061203b565b73ffffffffffffffffffffffffffffffffffffffff1661163e61169e565b73ffffffffffffffffffffffffffffffffffffffff1614611694576040517f08c379a000000000000000000000000000000000000000000000000000000000815260040161168b906140c7565b60405180910390fd5b80600d8190555050565b6000600a60009054906101000a900473ffffffffffffffffffffffffffffffffffffffff16905090565b6060600180546116d790614493565b80601f016020809104026020016040519081016040528092919081815260200182805461170390614493565b80156117505780601f1061172557610100808354040283529160200191611750565b820191906000526020600020905b81548152906001019060200180831161173357829003601f168201915b5050505050905090565b61176261203b565b73ffffffffffffffffffffffffffffffffffffffff168273ffffffffffffffffffffffffffffffffffffffff1614156117d0576040517f08c379a00000000000000000000000000000000000000000000000000000000081526004016117c790613f47565b60405180910390fd5b80600560006117dd61203b565b73ffffffffffffffffffffffffffffffffffffffff1673ffffffffffffffffffffffffffffffffffffffff16815260200190815260200160002060008473ffffffffffffffffffffffffffffffffffffffff1673ffffffffffffffffffffffffffffffffffffffff16815260200190815260200160002060006101000a81548160ff0219169083151502179055508173ffffffffffffffffffffffffffffffffffffffff1661188a61203b565b73ffffffffffffffffffffffffffffffffffffffff167f17307eab39ab6107e8899845ad3d59bd9653f200f220920489ca2b5937696c31836040516118cf9190613e4a565b60405180910390a35050565b6118ec6118e661203b565b836120fc565b61192b576040517f08c379a000000000000000000000000000000000000000000000000000000000815260040161192290614147565b60405180910390fd5b6119378484848461246a565b50505050565b61194561203b565b73ffffffffffffffffffffffffffffffffffffffff1661196361169e565b73ffffffffffffffffffffffffffffffffffffffff16146119b9576040517f08c379a00000000000000000000000000000000000000000000000000000000081526004016119b0906140c7565b60405180910390fd5b80601160006101000a81548160ff02191690831515021790555050565b60606119e182611fcf565b611a20576040517f08c379a0000000000000000000000000000000000000000000000000000000008152600401611a1790614107565b60405180910390fd5b6000611a2a6124c6565b90506000815111611a4a5760405180602001604052806000815250611a75565b80611a5484612558565b604051602001611a65929190613dbf565b6040516020818303038152906040525b915050919050565b601160009054906101000a900460ff16611acc576040517f08c379a0000000000000000000000000000000000000000000000000000000008152600401611ac390613f67565b60405180910390fd5b600e54811115611b11576040517f08c379a0000000000000000000000000000000000000000000000000000000008152600401611b0890614007565b60405180910390fd5b600f54611b2e82611b20610c22565b61245490919063ffffffff16565b1115611b6f576040517f08c379a0000000000000000000000000000000000000000000000000000000008152600401611b6690613e87565b60405180910390fd5b34611b858260105461270590919063ffffffff16565b1115611bc6576040517f08c379a0000000000000000000000000000000000000000000000000000000008152600401611bbd90614067565b60405180910390fd5b6000429050600080600190505b838111611c8857611bf56001611be7610c22565b61245490919063ffffffff16565b9150600f548211611c7557611c0a3383612436565b604051806020016040528084815250600b6000848152602001908152602001600020600082015181600001559050507f2d03118aa776f7008445f6ca8490a6782ede2db364d741513555ba656ab1879f823385604051611c6c939291906141bd565b60405180910390a15b8080611c80906144c5565b915050611bd3565b50505050565b6000600560008473ffffffffffffffffffffffffffffffffffffffff1673ffffffffffffffffffffffffffffffffffffffff16815260200190815260200160002060008373ffffffffffffffffffffffffffffffffffffffff1673ffffffffffffffffffffffffffffffffffffffff16815260200190815260200160002060009054906101000a900460ff16905092915050565b601160009054906101000a900460ff1681565b611d3d61203b565b73ffffffffffffffffffffffffffffffffffffffff16611d5b61169e565b73ffffffffffffffffffffffffffffffffffffffff1614611db1576040517f08c379a0000000000000000000000000000000000000000000000000000000008152600401611da8906140c7565b60405180910390fd5b600073ffffffffffffffffffffffffffffffffffffffff168173ffffffffffffffffffffffffffffffffffffffff161415611e21576040517f08c379a0000000000000000000000000000000000000000000000000000000008152600401611e1890613ee7565b60405180910390fd5b8073ffffffffffffffffffffffffffffffffffffffff16600a60009054906101000a900473ffffffffffffffffffffffffffffffffffffffff1673ffffffffffffffffffffffffffffffffffffffff167f8be0079c531659141344cd1fd0a4f28419497f9722a3daafe3b4186f6b6457e060405160405180910390a380600a60006101000a81548173ffffffffffffffffffffffffffffffffffffffff021916908373ffffffffffffffffffffffffffffffffffffffff16021790555050565b600f5481565b600d5481565b60007f80ac58cd000000000000000000000000000000000000000000000000000000007bffffffffffffffffffffffffffffffffffffffffffffffffffffffff1916827bffffffffffffffffffffffffffffffffffffffffffffffffffffffff19161480611fb857507f5b5e139f000000000000000000000000000000000000000000000000000000007bffffffffffffffffffffffffffffffffffffffffffffffffffffffff1916827bffffffffffffffffffffffffffffffffffffffffffffffffffffffff1916145b80611fc85750611fc78261271b565b5b9050919050565b60008073ffffffffffffffffffffffffffffffffffffffff166002600084815260200190815260200160002060009054906101000a900473ffffffffffffffffffffffffffffffffffffffff1673ffffffffffffffffffffffffffffffffffffffff1614159050919050565b600033905090565b816004600083815260200190815260200160002060006101000a81548173ffffffffffffffffffffffffffffffffffffffff021916908373ffffffffffffffffffffffffffffffffffffffff160217905550808273ffffffffffffffffffffffffffffffffffffffff166120b68361125e565b73ffffffffffffffffffffffffffffffffffffffff167f8c5be1e5ebec7d5bd14f71427d1e84f3dd0314c0f7b2291e5b200ac8c7c3b92560405160405180910390a45050565b600061210782611fcf565b612146576040517f08c379a000000000000000000000000000000000000000000000000000000000815260040161213d90613f87565b60405180910390fd5b60006121518361125e565b90508073ffffffffffffffffffffffffffffffffffffffff168473ffffffffffffffffffffffffffffffffffffffff1614806121c057508373ffffffffffffffffffffffffffffffffffffffff166121a884610969565b73ffffffffffffffffffffffffffffffffffffffff16145b806121d157506121d08185611c8e565b5b91505092915050565b8273ffffffffffffffffffffffffffffffffffffffff166121fa8261125e565b73ffffffffffffffffffffffffffffffffffffffff1614612250576040517f08c379a0000000000000000000000000000000000000000000000000000000008152600401612247906140e7565b60405180910390fd5b600073ffffffffffffffffffffffffffffffffffffffff168273ffffffffffffffffffffffffffffffffffffffff1614156122c0576040517f08c379a00000000000000000000000000000000000000000000000000000000081526004016122b790613f27565b60405180910390fd5b6122cb838383612785565b6122d6600082612043565b6001600360008573ffffffffffffffffffffffffffffffffffffffff1673ffffffffffffffffffffffffffffffffffffffff168152602001908152602001600020600082825461232691906143a9565b925050819055506001600360008473ffffffffffffffffffffffffffffffffffffffff1673ffffffffffffffffffffffffffffffffffffffff168152602001908152602001600020600082825461237d91906142c8565b92505081905550816002600083815260200190815260200160002060006101000a81548173ffffffffffffffffffffffffffffffffffffffff021916908373ffffffffffffffffffffffffffffffffffffffff160217905550808273ffffffffffffffffffffffffffffffffffffffff168473ffffffffffffffffffffffffffffffffffffffff167fddf252ad1be2c89b69c2b068fc378daa952ba7f163c4a11628f55a4df523b3ef60405160405180910390a4505050565b612450828260405180602001604052806000815250612899565b5050565b6000818361246291906142c8565b905092915050565b6124758484846121da565b612481848484846128f4565b6124c0576040517f08c379a00000000000000000000000000000000000000000000000000000000081526004016124b790613ec7565b60405180910390fd5b50505050565b6060601280546124d590614493565b80601f016020809104026020016040519081016040528092919081815260200182805461250190614493565b801561254e5780601f106125235761010080835404028352916020019161254e565b820191906000526020600020905b81548152906001019060200180831161253157829003601f168201915b5050505050905090565b606060008214156125a0576040518060400160405280600181526020017f30000000000000000000000000000000000000000000000000000000000000008152509050612700565b600082905060005b600082146125d25780806125bb906144c5565b915050600a826125cb919061431e565b91506125a8565b60008167ffffffffffffffff811115612614577f4e487b7100000000000000000000000000000000000000000000000000000000600052604160045260246000fd5b6040519080825280601f01601f1916602001820160405280156126465781602001600182028036833780820191505090505b5090505b600085146126f95760018261265f91906143a9565b9150600a8561266e919061450e565b603061267a91906142c8565b60f81b8183815181106126b6577f4e487b7100000000000000000000000000000000000000000000000000000000600052603260045260246000fd5b60200101907effffffffffffffffffffffffffffffffffffffffffffffffffffffffffffff1916908160001a905350600a856126f2919061431e565b945061264a565b8093505050505b919050565b60008183612713919061434f565b905092915050565b60007f01ffc9a7000000000000000000000000000000000000000000000000000000007bffffffffffffffffffffffffffffffffffffffffffffffffffffffff1916827bffffffffffffffffffffffffffffffffffffffffffffffffffffffff1916149050919050565b612790838383612a8b565b600073ffffffffffffffffffffffffffffffffffffffff168373ffffffffffffffffffffffffffffffffffffffff1614156127d3576127ce81612a90565b612812565b8173ffffffffffffffffffffffffffffffffffffffff168373ffffffffffffffffffffffffffffffffffffffff1614612811576128108382612ad9565b5b5b600073ffffffffffffffffffffffffffffffffffffffff168273ffffffffffffffffffffffffffffffffffffffff1614156128555761285081612c46565b612894565b8273ffffffffffffffffffffffffffffffffffffffff168273ffffffffffffffffffffffffffffffffffffffff1614612893576128928282612d89565b5b5b505050565b6128a38383612e08565b6128b060008484846128f4565b6128ef576040517f08c379a00000000000000000000000000000000000000000000000000000000081526004016128e690613ec7565b60405180910390fd5b505050565b60006129158473ffffffffffffffffffffffffffffffffffffffff16612fd6565b15612a7e578373ffffffffffffffffffffffffffffffffffffffff1663150b7a0261293e61203b565b8786866040518563ffffffff1660e01b81526004016129609493929190613dfe565b602060405180830381600087803b15801561297a57600080fd5b505af19250505080156129ab57506040513d601f19601f820116820180604052508101906129a891906133d1565b60015b612a2e573d80600081146129db576040519150601f19603f3d011682016040523d82523d6000602084013e6129e0565b606091505b50600081511415612a26576040517f08c379a0000000000000000000000000000000000000000000000000000000008152600401612a1d90613ec7565b60405180910390fd5b805181602001fd5b63150b7a0260e01b7bffffffffffffffffffffffffffffffffffffffffffffffffffffffff1916817bffffffffffffffffffffffffffffffffffffffffffffffffffffffff191614915050612a83565b600190505b949350505050565b505050565b6008805490506009600083815260200190815260200160002081905550600881908060018154018082558091505060019003906000526020600020016000909190919091505550565b60006001612ae68461141d565b612af091906143a9565b9050600060076000848152602001908152602001600020549050818114612bd5576000600660008673ffffffffffffffffffffffffffffffffffffffff1673ffffffffffffffffffffffffffffffffffffffff168152602001908152602001600020600084815260200190815260200160002054905080600660008773ffffffffffffffffffffffffffffffffffffffff1673ffffffffffffffffffffffffffffffffffffffff168152602001908152602001600020600084815260200190815260200160002081905550816007600083815260200190815260200160002081905550505b6007600084815260200190815260200160002060009055600660008573ffffffffffffffffffffffffffffffffffffffff1673ffffffffffffffffffffffffffffffffffffffff16815260200190815260200160002060008381526020019081526020016000206000905550505050565b60006001600880549050612c5a91906143a9565b9050600060096000848152602001908152602001600020549050600060088381548110612cb0577f4e487b7100000000000000000000000000000000000000000000000000000000600052603260045260246000fd5b906000526020600020015490508060088381548110612cf8577f4e487b7100000000000000000000000000000000000000000000000000000000600052603260045260246000fd5b906000526020600020018190555081600960008381526020019081526020016000208190555060096000858152602001908152602001600020600090556008805480612d6d577f4e487b7100000000000000000000000000000000000000000000000000000000600052603160045260246000fd5b6001900381819060005260206000200160009055905550505050565b6000612d948361141d565b905081600660008573ffffffffffffffffffffffffffffffffffffffff1673ffffffffffffffffffffffffffffffffffffffff168152602001908152602001600020600083815260200190815260200160002081905550806007600084815260200190815260200160002081905550505050565b600073ffffffffffffffffffffffffffffffffffffffff168273ffffffffffffffffffffffffffffffffffffffff161415612e78576040517f08c379a0000000000000000000000000000000000000000000000000000000008152600401612e6f90614087565b60405180910390fd5b612e8181611fcf565b15612ec1576040517f08c379a0000000000000000000000000000000000000000000000000000000008152600401612eb890613f07565b60405180910390fd5b612ecd60008383612785565b6001600360008473ffffffffffffffffffffffffffffffffffffffff1673ffffffffffffffffffffffffffffffffffffffff1681526020019081526020016000206000828254612f1d91906142c8565b92505081905550816002600083815260200190815260200160002060006101000a81548173ffffffffffffffffffffffffffffffffffffffff021916908373ffffffffffffffffffffffffffffffffffffffff160217905550808273ffffffffffffffffffffffffffffffffffffffff16600073ffffffffffffffffffffffffffffffffffffffff167fddf252ad1be2c89b69c2b068fc378daa952ba7f163c4a11628f55a4df523b3ef60405160405180910390a45050565b600080823b905060008111915050919050565b828054612ff590614493565b90600052602060002090601f016020900481019282613017576000855561305e565b82601f1061303057805160ff191683800117855561305e565b8280016001018555821561305e579182015b8281111561305d578251825591602001919060010190613042565b5b50905061306b9190613082565b5090565b6040518060200160405280600081525090565b5b8082111561309b576000816000905550600101613083565b5090565b60006130b26130ad84614225565b6141f4565b9050828152602081018484840111156130ca57600080fd5b6130d5848285614451565b509392505050565b60006130f06130eb84614255565b6141f4565b90508281526020810184848401111561310857600080fd5b613113848285614451565b509392505050565b60008135905061312a8161460c565b92915050565b60008135905061313f81614623565b92915050565b6000813590506131548161463a565b92915050565b6000815190506131698161463a565b92915050565b600082601f83011261318057600080fd5b813561319084826020860161309f565b91505092915050565b600082601f8301126131aa57600080fd5b81356131ba8482602086016130dd565b91505092915050565b6000813590506131d281614651565b92915050565b6000602082840312156131ea57600080fd5b60006131f88482850161311b565b91505092915050565b6000806040838503121561321457600080fd5b60006132228582860161311b565b92505060206132338582860161311b565b9150509250929050565b60008060006060848603121561325257600080fd5b60006132608682870161311b565b93505060206132718682870161311b565b9250506040613282868287016131c3565b9150509250925092565b600080600080608085870312156132a257600080fd5b60006132b08782880161311b565b94505060206132c18782880161311b565b93505060406132d2878288016131c3565b925050606085013567ffffffffffffffff8111156132ef57600080fd5b6132fb8782880161316f565b91505092959194509250565b6000806040838503121561331a57600080fd5b60006133288582860161311b565b925050602061333985828601613130565b9150509250929050565b6000806040838503121561335657600080fd5b60006133648582860161311b565b9250506020613375858286016131c3565b9150509250929050565b60006020828403121561339157600080fd5b600061339f84828501613130565b91505092915050565b6000602082840312156133ba57600080fd5b60006133c884828501613145565b91505092915050565b6000602082840312156133e357600080fd5b60006133f18482850161315a565b91505092915050565b60006020828403121561340c57600080fd5b600082013567ffffffffffffffff81111561342657600080fd5b61343284828501613199565b91505092915050565b60006020828403121561344d57600080fd5b600061345b848285016131c3565b91505092915050565b61346d816143dd565b82525050565b61347c816143ef565b82525050565b600061348d82614285565b613497818561429b565b93506134a7818560208601614460565b6134b0816145fb565b840191505092915050565b60006134c682614290565b6134d081856142ac565b93506134e0818560208601614460565b6134e9816145fb565b840191505092915050565b60006134ff82614290565b61350981856142bd565b9350613519818560208601614460565b80840191505092915050565b6000613532602a836142ac565b91507f507572636861736520776f756c6420657863656564206d617820737570706c7960008301527f206f6620416c69656e73000000000000000000000000000000000000000000006020830152604082019050919050565b6000613598602b836142ac565b91507f455243373231456e756d657261626c653a206f776e657220696e646578206f7560008301527f74206f6620626f756e64730000000000000000000000000000000000000000006020830152604082019050919050565b60006135fe6032836142ac565b91507f4552433732313a207472616e7366657220746f206e6f6e20455243373231526560008301527f63656976657220696d706c656d656e74657200000000000000000000000000006020830152604082019050919050565b60006136646026836142ac565b91507f4f776e61626c653a206e6577206f776e657220697320746865207a65726f206160008301527f64647265737300000000000000000000000000000000000000000000000000006020830152604082019050919050565b60006136ca601c836142ac565b91507f4552433732313a20746f6b656e20616c7265616479206d696e746564000000006000830152602082019050919050565b600061370a6024836142ac565b91507f4552433732313a207472616e7366657220746f20746865207a65726f2061646460008301527f72657373000000000000000000000000000000000000000000000000000000006020830152604082019050919050565b60006137706019836142ac565b91507f4552433732313a20617070726f766520746f2063616c6c6572000000000000006000830152602082019050919050565b60006137b0601f836142ac565b91507f4d696e74206973206e6f7420617661696c61626c65207269676874206e6f77006000830152602082019050919050565b60006137f0602c836142ac565b91507f4552433732313a206f70657261746f7220717565727920666f72206e6f6e657860008301527f697374656e7420746f6b656e00000000000000000000000000000000000000006020830152604082019050919050565b60006138566010836142ac565b91507f546f6b656e20776173206d696e746564000000000000000000000000000000006000830152602082019050919050565b60006138966014836142ac565b91507f546f6b656e20776173206e6f74206d696e7465640000000000000000000000006000830152602082019050919050565b60006138d66038836142ac565b91507f4552433732313a20617070726f76652063616c6c6572206973206e6f74206f7760008301527f6e6572206e6f7220617070726f76656420666f7220616c6c00000000000000006020830152604082019050919050565b600061393c6021836142ac565b91507f43616e206f6e6c79206d696e7420353020746f6b656e7320617420612074696d60008301527f65000000000000000000000000000000000000000000000000000000000000006020830152604082019050919050565b60006139a2602a836142ac565b91507f4552433732313a2062616c616e636520717565727920666f7220746865207a6560008301527f726f2061646472657373000000000000000000000000000000000000000000006020830152604082019050919050565b6000613a086029836142ac565b91507f4552433732313a206f776e657220717565727920666f72206e6f6e657869737460008301527f656e7420746f6b656e00000000000000000000000000000000000000000000006020830152604082019050919050565b6000613a6e6019836142ac565b91507f56616c75652073656e74206973206e6f7420636f7272656374000000000000006000830152602082019050919050565b6000613aae6020836142ac565b91507f4552433732313a206d696e7420746f20746865207a65726f20616464726573736000830152602082019050919050565b6000613aee602c836142ac565b91507f4552433732313a20617070726f76656420717565727920666f72206e6f6e657860008301527f697374656e7420746f6b656e00000000000000000000000000000000000000006020830152604082019050919050565b6000613b546020836142ac565b91507f4f776e61626c653a2063616c6c6572206973206e6f7420746865206f776e65726000830152602082019050919050565b6000613b946029836142ac565b91507f4552433732313a207472616e73666572206f6620746f6b656e2074686174206960008301527f73206e6f74206f776e00000000000000000000000000000000000000000000006020830152604082019050919050565b6000613bfa602f836142ac565b91507f4552433732314d657461646174613a2055524920717565727920666f72206e6f60008301527f6e6578697374656e7420746f6b656e00000000000000000000000000000000006020830152604082019050919050565b6000613c606021836142ac565b91507f4552433732313a20617070726f76616c20746f2063757272656e74206f776e6560008301527f72000000000000000000000000000000000000000000000000000000000000006020830152604082019050919050565b6000613cc66031836142ac565b91507f4552433732313a207472616e736665722063616c6c6572206973206e6f74206f60008301527f776e6572206e6f7220617070726f7665640000000000000000000000000000006020830152604082019050919050565b6000613d2c602c836142ac565b91507f455243373231456e756d657261626c653a20676c6f62616c20696e646578206f60008301527f7574206f6620626f756e647300000000000000000000000000000000000000006020830152604082019050919050565b602082016000820151613d9b6000850182613da1565b50505050565b613daa81614447565b82525050565b613db981614447565b82525050565b6000613dcb82856134f4565b9150613dd782846134f4565b91508190509392505050565b6000602082019050613df86000830184613464565b92915050565b6000608082019050613e136000830187613464565b613e206020830186613464565b613e2d6040830185613db0565b8181036060830152613e3f8184613482565b905095945050505050565b6000602082019050613e5f6000830184613473565b92915050565b60006020820190508181036000830152613e7f81846134bb565b905092915050565b60006020820190508181036000830152613ea081613525565b9050919050565b60006020820190508181036000830152613ec08161358b565b9050919050565b60006020820190508181036000830152613ee0816135f1565b9050919050565b60006020820190508181036000830152613f0081613657565b9050919050565b60006020820190508181036000830152613f20816136bd565b9050919050565b60006020820190508181036000830152613f40816136fd565b9050919050565b60006020820190508181036000830152613f6081613763565b9050919050565b60006020820190508181036000830152613f80816137a3565b9050919050565b60006020820190508181036000830152613fa0816137e3565b9050919050565b60006020820190508181036000830152613fc081613849565b9050919050565b60006020820190508181036000830152613fe081613889565b9050919050565b60006020820190508181036000830152614000816138c9565b9050919050565b600060208201905081810360008301526140208161392f565b9050919050565b6000602082019050818103600083015261404081613995565b9050919050565b60006020820190508181036000830152614060816139fb565b9050919050565b6000602082019050818103600083015261408081613a61565b9050919050565b600060208201905081810360008301526140a081613aa1565b9050919050565b600060208201905081810360008301526140c081613ae1565b9050919050565b600060208201905081810360008301526140e081613b47565b9050919050565b6000602082019050818103600083015261410081613b87565b9050919050565b6000602082019050818103600083015261412081613bed565b9050919050565b6000602082019050818103600083015261414081613c53565b9050919050565b6000602082019050818103600083015261416081613cb9565b9050919050565b6000602082019050818103600083015261418081613d1f565b9050919050565b600060208201905061419c6000830184613d85565b92915050565b60006020820190506141b76000830184613db0565b92915050565b60006060820190506141d26000830186613db0565b6141df6020830185613464565b6141ec6040830184613db0565b949350505050565b6000604051905081810181811067ffffffffffffffff8211171561421b5761421a6145cc565b5b8060405250919050565b600067ffffffffffffffff8211156142405761423f6145cc565b5b601f19601f8301169050602081019050919050565b600067ffffffffffffffff8211156142705761426f6145cc565b5b601f19601f8301169050602081019050919050565b600081519050919050565b600081519050919050565b600082825260208201905092915050565b600082825260208201905092915050565b600081905092915050565b60006142d382614447565b91506142de83614447565b9250827fffffffffffffffffffffffffffffffffffffffffffffffffffffffffffffffff038211156143135761431261453f565b5b828201905092915050565b600061432982614447565b915061433483614447565b9250826143445761434361456e565b5b828204905092915050565b600061435a82614447565b915061436583614447565b9250817fffffffffffffffffffffffffffffffffffffffffffffffffffffffffffffffff048311821515161561439e5761439d61453f565b5b828202905092915050565b60006143b482614447565b91506143bf83614447565b9250828210156143d2576143d161453f565b5b828203905092915050565b60006143e882614427565b9050919050565b60008115159050919050565b60007fffffffff0000000000000000000000000000000000000000000000000000000082169050919050565b600073ffffffffffffffffffffffffffffffffffffffff82169050919050565b6000819050919050565b82818337600083830152505050565b60005b8381101561447e578082015181840152602081019050614463565b8381111561448d576000848401525b50505050565b600060028204905060018216806144ab57607f821691505b602082108114156144bf576144be61459d565b5b50919050565b60006144d082614447565b91507fffffffffffffffffffffffffffffffffffffffffffffffffffffffffffffffff8214156145035761450261453f565b5b600182019050919050565b600061451982614447565b915061452483614447565b9250826145345761453361456e565b5b828206905092915050565b7f4e487b7100000000000000000000000000000000000000000000000000000000600052601160045260246000fd5b7f4e487b7100000000000000000000000000000000000000000000000000000000600052601260045260246000fd5b7f4e487b7100000000000000000000000000000000000000000000000000000000600052602260045260246000fd5b7f4e487b7100000000000000000000000000000000000000000000000000000000600052604160045260246000fd5b6000601f19601f8301169050919050565b614615816143dd565b811461462057600080fd5b50565b61462c816143ef565b811461463757600080fd5b50565b614643816143fb565b811461464e57600080fd5b50565b61465a81614447565b811461466557600080fd5b5056fea2646970667358221220b7a7da7bffad8ee6e86c736d24c1f8f7fdfc735c9ff588088f7adebdf3f4d94864736f6c63430008000033",
  "immutableReferences": {},
  "source": "//Contract based on https://docs.openzeppelin.com/contracts/3.x/erc721\r\n// SPDX-License-Identifier: MIT\r\npragma solidity ^0.8.0;\r\n\r\nimport \"./ERC721.sol\";\r\nimport \"./Ownable.sol\";\r\nimport \"./SafeMath.sol\";\r\nimport \"./EnumerableMap.sol\";\r\nimport \"./ERC721Enumerable.sol\";\r\nimport \"./ERC1155.sol\";\r\n\t\t                                                                          \r\n//                        ,(((((((((((((((((((((((((,                          \r\n//                    #####((((((((((((((((((((((((((((((.                     \r\n//                ,#######((((((((((((((((((((((((((((((((((/                  \r\n//             .##########(((((((((((((((((((((((((((((((((((((                \r\n//          ..#########(##((((((((((((((///***,,,,,....,,,##%%(%#%             \r\n//       ....############(((##%(*,,.....,,,/(////#/#(#,*,*%#(/*/*(%            \r\n//      ....###########(/%(,,,(/#/##%%*&#**,/,(((#&/%(&#%##((%(*///#           \r\n//    .....#######(/*,(**#(*##&#&@%%%&/%*/*%(*%,(,,./(/.#*#,%#(%%.,##          \r\n//  &%.....###&%%#**(*/*(((,/%*/%((&%&(#((((((((((((((((((((((((((((,          \r\n//   #(##,,#(**(&*#/%%#%((((((((((((((((((((((((((((((((((((((((((((/          \r\n//  ..##/###&##########(((((((((((((((((((((((((((((((((((((((((((((/          \r\n// /(/,,/&,#############((((((((((((((((((((((((((((((((((((((((((((*          \r\n//  ....,,,###@&&&&@&@@@&&&%%#&@@@@@@@@@@@@@@@@@%(((((((((#&@@@@@@@&           \r\n//  ....,,,##@###########(#&@@@@@@@(&@@@@@@@&%##(#@@@@@&(((((@@&%#(@&&         \r\n//  .....,,,#############(#(((((%@((@@@@@@@@&%##%&%@@&@(((%@@@@&%//,&          \r\n//  .....,,,,################((((@((#@@@@@@@&%#%&&@&(#@(#@@@@@@(// &,          \r\n//   .....,,,,#################((#@(((#@@@@&%##%&@@(((#@@@@@@(((/  @           \r\n//    .....,,,,,###################@(((((##%%#((@%((((((@((((((  @&            \r\n//      ....,,,,,,##################%@@@&&&@@@&(((((((((((#&&&&%               \r\n//       .......,,,,,####################################/                     \r\n//          ......,,,,,,,,%%##########%%%%%%%%%%%%%%/.                         \r\n//            .........,,,,,,,%@@@@@@@@@@*///*@@@@,                            \r\n//                 .........,@@@@*@@@@@#@#(..@&&/@(                            \r\n//                    .....@@@@@@@@@@@@@@&&&%&%&@&@@                           \r\n//                    ....@@@@@@@@@@@@@@@@@@&&@@@@@@@                          \r\n//                   ....@&@&&@&@@@&&@&&&&&&@@&/@@@@@@                         \r\n//                  ....&&&&&&&&&@@@&&&#&&&&&&&%&&&&@@@                        \r\n//                 ....&&&&&%&&&&@&&%%&%%%%%&&%&&&&&@@&&                       \r\n//                ....%%%%%%%%&&&&&&%%%%%%%%%%&%%&&&&@&&*      \r\n//\r\n//\r\n//  F#ck you nerd. You found me!\r\n//  Join #IFoundTheAlienBoyContract at https://discord.gg/4TCeBSDbSh\r\n\r\n\r\ncontract TheAlienBoy is ERC721Enumerable, Ownable  {\r\n\r\n    using SafeMath for uint256;\r\n\r\n    // Token detail\r\n    struct AlienDetail {\r\n        uint256 first_encounter;\r\n    }\r\n\r\n    // Events\r\n    event TokenMinted(uint256 tokenId, address owner, uint256 first_encounter);\r\n\r\n    // Token Detail\r\n    mapping( uint256 => AlienDetail) private _alienDetails;\r\n\r\n    // Provenance number\r\n    string public PROVENANCE = \"\";\r\n\r\n    // Starting index\r\n    uint256 public STARTING_INDEX;\r\n\r\n    // Max amount of token to purchase per account each time\r\n    uint public MAX_PURCHASE = 50;\r\n\r\n    // Maximum amount of tokens to supply.\r\n    uint256 public MAX_TOKENS = 10000;\r\n\r\n    // Current price.\r\n    uint256 public CURRENT_PRICE = 80000000000000000;\r\n\r\n    // Define if sale is active\r\n    bool public saleIsActive = true;\r\n\r\n    // Base URI\r\n    string private baseURI;\r\n\r\n    /**\r\n     * Contract constructor\r\n     */\r\n    constructor(string memory name, string memory symbol, string memory baseURIp, uint256 startingIndex) ERC721(name, symbol) {\r\n        setBaseURI(baseURIp);\r\n        STARTING_INDEX = startingIndex;\r\n    }\r\n\r\n    /**\r\n     * Withdraw\r\n     */\r\n    function withdraw() public onlyOwner {\r\n        uint balance = address(this).balance;\r\n        payable(msg.sender).transfer(balance);\r\n    }\r\n\r\n    /**\r\n     * Reserve tokens\r\n     */\r\n    function reserveTokens() public onlyOwner {\r\n        uint i;\r\n        uint tokenId;\r\n        uint256 first_encounter = block.timestamp;\r\n\r\n        for (i = 1; i <= 50; i++) {\r\n            tokenId = totalSupply().add(1);\r\n            if (tokenId <= MAX_TOKENS) {\r\n                _safeMint(msg.sender, tokenId);\r\n                _alienDetails[tokenId] = AlienDetail(first_encounter);\r\n                emit TokenMinted(tokenId, msg.sender, first_encounter);\r\n            }\r\n        }\r\n    }\r\n\r\n    /**\r\n     * Mint a specific token. \r\n     */\r\n    function mintTokenId(uint tokenId) public onlyOwner {\r\n        require(!_exists(tokenId), \"Token was minted\");\r\n        uint256 first_encounter = block.timestamp;\r\n        \r\n        _safeMint(msg.sender, tokenId);\r\n        _alienDetails[tokenId] = AlienDetail(first_encounter);\r\n        emit TokenMinted(tokenId, msg.sender, first_encounter);\r\n    }\r\n\r\n    /*     \r\n    * Set provenance once it's calculated\r\n    */\r\n    function setProvenanceHash(string memory provenanceHash) public onlyOwner {\r\n        PROVENANCE = provenanceHash;\r\n    }\r\n\r\n    /*     \r\n    * Set max tokens\r\n    */\r\n    function setMaxTokens(uint256 maxTokens) public onlyOwner {\r\n        MAX_TOKENS = maxTokens;\r\n    }\r\n\r\n    /*\r\n    * Pause sale if active, make active if paused\r\n    */\r\n    function setSaleState(bool newState) public onlyOwner {\r\n        saleIsActive = newState;\r\n    }\r\n\r\n    /**\r\n    * Mint Alien\r\n    */\r\n    function mintAlien(uint numberOfTokens) public payable {\r\n        require(saleIsActive, \"Mint is not available right now\");\r\n        require(numberOfTokens <= MAX_PURCHASE, \"Can only mint 50 tokens at a time\");\r\n        require(totalSupply().add(numberOfTokens) <= MAX_TOKENS, \"Purchase would exceed max supply of Aliens\");\r\n        require(CURRENT_PRICE.mul(numberOfTokens) <= msg.value, \"Value sent is not correct\");\r\n        uint256 first_encounter = block.timestamp;\r\n        uint tokenId;\r\n        \r\n        for(uint i = 1; i <= numberOfTokens; i++) {\r\n            tokenId = totalSupply().add(1);\r\n            if (tokenId <= MAX_TOKENS) {\r\n                _safeMint(msg.sender, tokenId);\r\n                _alienDetails[tokenId] = AlienDetail(first_encounter);\r\n                \r\n                emit TokenMinted(tokenId, msg.sender, first_encounter);\r\n            }\r\n        }\r\n    }\r\n\r\n    /**\r\n     * Set the starting index for the collection\r\n     */\r\n    function setStartingIndex(uint256 startingIndex) public onlyOwner {\r\n        STARTING_INDEX = startingIndex;\r\n    }\r\n\r\n    /**\r\n    * @dev Changes the base URI if we want to move things in the future (Callable by owner only)\r\n    */\r\n    function setBaseURI(string memory BaseURI) public onlyOwner {\r\n       baseURI = BaseURI;\r\n    }\r\n\r\n     /**\r\n     * @dev Base URI for computing {tokenURI}. Empty by default, can be overriden\r\n     * in child contracts.\r\n     */\r\n    function _baseURI() internal view virtual override returns (string memory) {\r\n        return baseURI;\r\n    }\r\n\r\n   /**\r\n     * Set the current token price\r\n     */\r\n    function setCurrentPrice(uint256 currentPrice) public onlyOwner {\r\n        CURRENT_PRICE = currentPrice;\r\n    }\r\n\r\n    /**\r\n     * Get the token detail\r\n     */\r\n    function getAlienDetail(uint256 tokenId) public view returns(AlienDetail memory detail) {\r\n        require(_exists(tokenId), \"Token was not minted\");\r\n\r\n        return _alienDetails[tokenId];\r\n    }\r\n}\r\n",
  "sourcePath": "D:/UpWork-Blockchain/srinin/AlienBoy/contracts/TheAlienBoy.sol",
  "compiler": {
    "name": "solc",
    "version": "0.8.0+commit.c7dfd78e.Emscripten.clang"
  },
  "schemaVersion": "3.4.1",
  "updatedAt": "2021-07-23T05:11:34.364Z",
  "networkType": "ethereum",
  "devdoc": {
    "kind": "dev",
    "methods": {
      "approve(address,uint256)": {
        "details": "See {IERC721-approve}."
      },
      "balanceOf(address)": {
        "details": "See {IERC721-balanceOf}."
      },
      "getApproved(uint256)": {
        "details": "See {IERC721-getApproved}."
      },
      "isApprovedForAll(address,address)": {
        "details": "See {IERC721-isApprovedForAll}."
      },
      "name()": {
        "details": "See {IERC721Metadata-name}."
      },
      "owner()": {
        "details": "Returns the address of the current owner."
      },
      "ownerOf(uint256)": {
        "details": "See {IERC721-ownerOf}."
      },
      "renounceOwnership()": {
        "details": "Leaves the contract without owner. It will not be possible to call `onlyOwner` functions anymore. Can only be called by the current owner. NOTE: Renouncing ownership will leave the contract without an owner, thereby removing any functionality that is only available to the owner."
      },
      "safeTransferFrom(address,address,uint256)": {
        "details": "See {IERC721-safeTransferFrom}."
      },
      "safeTransferFrom(address,address,uint256,bytes)": {
        "details": "See {IERC721-safeTransferFrom}."
      },
      "setApprovalForAll(address,bool)": {
        "details": "See {IERC721-setApprovalForAll}."
      },
      "setBaseURI(string)": {
        "details": "Changes the base URI if we want to move things in the future (Callable by owner only)"
      },
      "supportsInterface(bytes4)": {
        "details": "See {IERC165-supportsInterface}."
      },
      "symbol()": {
        "details": "See {IERC721Metadata-symbol}."
      },
      "tokenByIndex(uint256)": {
        "details": "See {IERC721Enumerable-tokenByIndex}."
      },
      "tokenOfOwnerByIndex(address,uint256)": {
        "details": "See {IERC721Enumerable-tokenOfOwnerByIndex}."
      },
      "tokenURI(uint256)": {
        "details": "See {IERC721Metadata-tokenURI}."
      },
      "totalSupply()": {
        "details": "See {IERC721Enumerable-totalSupply}."
      },
      "transferFrom(address,address,uint256)": {
        "details": "See {IERC721-transferFrom}."
      },
      "transferOwnership(address)": {
        "details": "Transfers ownership of the contract to a new account (`newOwner`). Can only be called by the current owner."
      }
    },
    "version": 1
  },
  "userdoc": {
    "kind": "user",
    "methods": {
      "constructor": {
        "notice": "Contract constructor"
      },
      "getAlienDetail(uint256)": {
        "notice": "Get the token detail"
      },
      "mintAlien(uint256)": {
        "notice": "Mint Alien"
      },
      "mintTokenId(uint256)": {
        "notice": "Mint a specific token. "
      },
      "reserveTokens()": {
        "notice": "Reserve tokens"
      },
      "setCurrentPrice(uint256)": {
        "notice": "Set the current token price"
      },
      "setStartingIndex(uint256)": {
        "notice": "Set the starting index for the collection"
      },
      "withdraw()": {
        "notice": "Withdraw"
      }
    },
    "version": 1
  }
}